{
  "contractName": "BountyContract",
  "abi": [
    {
      "constant": true,
      "inputs": [],
      "name": "name",
      "outputs": [
        {
          "name": "",
          "type": "string"
        }
      ],
      "payable": false,
      "stateMutability": "view",
      "type": "function"
    },
    {
      "constant": false,
      "inputs": [
        {
          "name": "_spender",
          "type": "address"
        },
        {
          "name": "_amount",
          "type": "uint256"
        }
      ],
      "name": "approve",
      "outputs": [
        {
          "name": "success",
          "type": "bool"
        }
      ],
      "payable": false,
      "stateMutability": "nonpayable",
      "type": "function"
    },
    {
      "constant": true,
      "inputs": [],
      "name": "nextTokenDistribution",
      "outputs": [
        {
          "name": "",
          "type": "uint256"
        }
      ],
      "payable": false,
      "stateMutability": "view",
      "type": "function"
    },
    {
      "constant": true,
      "inputs": [],
      "name": "totalSupply",
      "outputs": [
        {
          "name": "",
          "type": "uint256"
        }
      ],
      "payable": false,
      "stateMutability": "view",
      "type": "function"
    },
    {
      "constant": true,
      "inputs": [],
      "name": "totalVotesRecevied",
      "outputs": [
        {
          "name": "",
          "type": "uint256"
        }
      ],
      "payable": false,
      "stateMutability": "view",
      "type": "function"
    },
    {
      "constant": false,
      "inputs": [
        {
          "name": "_from",
          "type": "address"
        },
        {
          "name": "_to",
          "type": "address"
        },
        {
          "name": "_amount",
          "type": "uint256"
        }
      ],
      "name": "transferFrom",
      "outputs": [
        {
          "name": "success",
          "type": "bool"
        }
      ],
      "payable": false,
      "stateMutability": "nonpayable",
      "type": "function"
    },
    {
      "constant": true,
      "inputs": [],
      "name": "decimals",
      "outputs": [
        {
          "name": "",
          "type": "uint256"
        }
      ],
      "payable": false,
      "stateMutability": "view",
      "type": "function"
    },
    {
      "constant": true,
      "inputs": [],
      "name": "bountyCount",
      "outputs": [
        {
          "name": "",
          "type": "uint256"
        }
      ],
      "payable": false,
      "stateMutability": "view",
      "type": "function"
    },
    {
      "constant": false,
      "inputs": [
        {
          "name": "_amount",
          "type": "uint256"
        }
      ],
      "name": "burn",
      "outputs": [],
      "payable": false,
      "stateMutability": "nonpayable",
      "type": "function"
    },
    {
      "constant": false,
      "inputs": [
        {
          "name": "_address",
          "type": "address"
        },
        {
          "name": "_amount",
          "type": "uint256"
        }
      ],
      "name": "vote",
      "outputs": [],
      "payable": false,
      "stateMutability": "nonpayable",
      "type": "function"
    },
    {
      "constant": true,
      "inputs": [
        {
          "name": "addr",
          "type": "address"
        }
      ],
      "name": "balanceOf",
      "outputs": [
        {
          "name": "",
          "type": "uint256"
        }
      ],
      "payable": false,
      "stateMutability": "view",
      "type": "function"
    },
    {
      "constant": false,
      "inputs": [
        {
          "name": "_amount",
          "type": "uint256"
        }
      ],
      "name": "distributeTokens",
      "outputs": [
        {
          "name": "",
          "type": "bool"
        }
      ],
      "payable": false,
      "stateMutability": "nonpayable",
      "type": "function"
    },
    {
      "constant": true,
      "inputs": [],
      "name": "canDistributeTokens",
      "outputs": [
        {
          "name": "",
          "type": "bool"
        }
      ],
      "payable": false,
      "stateMutability": "view",
      "type": "function"
    },
    {
      "constant": true,
      "inputs": [],
      "name": "nextVoteDistribution",
      "outputs": [
        {
          "name": "",
          "type": "uint256"
        }
      ],
      "payable": false,
      "stateMutability": "view",
      "type": "function"
    },
    {
      "constant": true,
      "inputs": [
        {
          "name": "",
          "type": "address"
        }
      ],
      "name": "projects",
      "outputs": [
        {
          "name": "",
          "type": "uint256"
        }
      ],
      "payable": false,
      "stateMutability": "view",
      "type": "function"
    },
    {
      "constant": true,
      "inputs": [
        {
          "name": "addr",
          "type": "address"
        }
      ],
      "name": "voteBalanceOf",
      "outputs": [
        {
          "name": "",
          "type": "uint256"
        }
      ],
      "payable": false,
      "stateMutability": "view",
      "type": "function"
    },
    {
      "constant": true,
      "inputs": [],
      "name": "symbol",
      "outputs": [
        {
          "name": "",
          "type": "string"
        }
      ],
      "payable": false,
      "stateMutability": "view",
      "type": "function"
    },
    {
      "constant": true,
      "inputs": [],
      "name": "canDistributeVotes",
      "outputs": [
        {
          "name": "",
          "type": "bool"
        }
      ],
      "payable": false,
      "stateMutability": "view",
      "type": "function"
    },
    {
      "constant": false,
      "inputs": [
        {
          "name": "_to",
          "type": "address"
        },
        {
          "name": "_value",
          "type": "uint256"
        }
      ],
      "name": "transfer",
      "outputs": [
        {
          "name": "",
          "type": "bool"
        }
      ],
      "payable": false,
      "stateMutability": "nonpayable",
      "type": "function"
    },
    {
      "constant": true,
      "inputs": [
        {
          "name": "_owner",
          "type": "address"
        }
      ],
      "name": "getHoldersVoteAllocation",
      "outputs": [
        {
          "name": "",
          "type": "uint256"
        }
      ],
      "payable": false,
      "stateMutability": "view",
      "type": "function"
    },
    {
      "constant": true,
      "inputs": [
        {
          "name": "",
          "type": "uint256"
        }
      ],
      "name": "bountyIndexes",
      "outputs": [
        {
          "name": "",
          "type": "address"
        }
      ],
      "payable": false,
      "stateMutability": "view",
      "type": "function"
    },
    {
      "constant": true,
      "inputs": [
        {
          "name": "",
          "type": "uint256"
        }
      ],
      "name": "holderKeys",
      "outputs": [
        {
          "name": "",
          "type": "address"
        }
      ],
      "payable": false,
      "stateMutability": "view",
      "type": "function"
    },
    {
      "constant": true,
      "inputs": [
        {
          "name": "_project",
          "type": "address"
        }
      ],
      "name": "getProjectTokens",
      "outputs": [
        {
          "name": "",
          "type": "uint256"
        }
      ],
      "payable": false,
      "stateMutability": "view",
      "type": "function"
    },
    {
      "constant": true,
      "inputs": [
        {
          "name": "",
          "type": "uint256"
        }
      ],
      "name": "projectKeys",
      "outputs": [
        {
          "name": "",
          "type": "address"
        }
      ],
      "payable": false,
      "stateMutability": "view",
      "type": "function"
    },
    {
      "constant": true,
      "inputs": [
        {
          "name": "addr",
          "type": "address"
        }
      ],
      "name": "projectVotes",
      "outputs": [
        {
          "name": "",
          "type": "uint256"
        }
      ],
      "payable": false,
      "stateMutability": "view",
      "type": "function"
    },
    {
      "constant": true,
      "inputs": [
        {
          "name": "_owner",
          "type": "address"
        },
        {
          "name": "_spender",
          "type": "address"
        }
      ],
      "name": "allowance",
      "outputs": [
        {
          "name": "remaining",
          "type": "uint256"
        }
      ],
      "payable": false,
      "stateMutability": "view",
      "type": "function"
    },
    {
      "constant": false,
      "inputs": [
        {
          "name": "_amount",
          "type": "uint256"
        }
      ],
      "name": "distributeVotes",
      "outputs": [
        {
          "name": "",
          "type": "bool"
        }
      ],
      "payable": false,
      "stateMutability": "nonpayable",
      "type": "function"
    },
    {
      "inputs": [],
      "payable": false,
      "stateMutability": "nonpayable",
      "type": "constructor"
    },
    {
      "anonymous": false,
      "inputs": [
        {
          "indexed": true,
          "name": "_from",
          "type": "address"
        },
        {
          "indexed": true,
          "name": "_to",
          "type": "address"
        },
        {
          "indexed": false,
          "name": "_value",
          "type": "uint256"
        }
      ],
      "name": "Transfer",
      "type": "event"
    },
    {
      "anonymous": false,
      "inputs": [
        {
          "indexed": true,
          "name": "_owner",
          "type": "address"
        },
        {
          "indexed": true,
          "name": "_spender",
          "type": "address"
        },
        {
          "indexed": false,
          "name": "_value",
          "type": "uint256"
        }
      ],
      "name": "Approval",
      "type": "event"
    }
  ],
  "bytecode": "0x60606040526040805190810160405280600381526020017f52504d0000000000000000000000000000000000000000000000000000000000815250600090805190602001906200005192919062000162565b506040805190810160405280600381526020017f52504d0000000000000000000000000000000000000000000000000000000000815250600190805190602001906200009f92919062000162565b5060066002553415620000b157600080fd5b600080600033600860006101000a81548173ffffffffffffffffffffffffffffffffffffffff021916908373ffffffffffffffffffffffffffffffffffffffff16021790555082600381905550600254600a0a60035402600460003373ffffffffffffffffffffffffffffffffffffffff1673ffffffffffffffffffffffffffffffffffffffff168152602001908152602001600020819055508160098190555080600a8190555050505062000211565b828054600181600116156101000203166002900490600052602060002090601f016020900481019282601f10620001a557805160ff1916838001178555620001d6565b82800160010185558215620001d6579182015b82811115620001d5578251825591602001919060010190620001b8565b5b509050620001e59190620001e9565b5090565b6200020e91905b808211156200020a576000816000905550600101620001f0565b5090565b90565b611bc480620002216000396000f30060606040526004361061015f576000357c0100000000000000000000000000000000000000000000000000000000900463ffffffff16806306fdde0314610164578063095ea7b3146101f25780631791193f1461024c57806318160ddd146102755780631f544d1a1461029e57806323b872dd146102c7578063313ce567146103405780633e362c961461036957806342966c68146103925780635f74bbde146103b557806370a08231146103f75780637366794e1461044457806376412dc61461047f5780637d8abeed146104ac578063840e78fd146104d557806384ab8bb81461052257806395d89b411461056f578063a849e7eb146105fd578063a9059cbb1461062a578063c29fc80114610684578063c5bd42c2146106d1578063d48ff3f614610734578063d8599e8414610797578063d8821bf0146107e4578063d9dd057c14610847578063dd62ed3e14610894578063fc26645614610900575b600080fd5b341561016f57600080fd5b61017761093b565b6040518080602001828103825283818151815260200191508051906020019080838360005b838110156101b757808201518184015260208101905061019c565b50505050905090810190601f1680156101e45780820380516001836020036101000a031916815260200191505b509250505060405180910390f35b34156101fd57600080fd5b610232600480803573ffffffffffffffffffffffffffffffffffffffff169060200190919080359060200190919050506109d9565b604051808215151515815260200191505060405180910390f35b341561025757600080fd5b61025f610a6d565b6040518082815260200191505060405180910390f35b341561028057600080fd5b610288610a73565b6040518082815260200191505060405180910390f35b34156102a957600080fd5b6102b1610a79565b6040518082815260200191505060405180910390f35b34156102d257600080fd5b610326600480803573ffffffffffffffffffffffffffffffffffffffff1690602001909190803573ffffffffffffffffffffffffffffffffffffffff16906020019091908035906020019091905050610a7f565b604051808215151515815260200191505060405180910390f35b341561034b57600080fd5b610353610e4b565b6040518082815260200191505060405180910390f35b341561037457600080fd5b61037c610e51565b6040518082815260200191505060405180910390f35b341561039d57600080fd5b6103b36004808035906020019091905050610e57565b005b34156103c057600080fd5b6103f5600480803573ffffffffffffffffffffffffffffffffffffffff16906020019091908035906020019091905050610fc8565b005b341561040257600080fd5b61042e600480803573ffffffffffffffffffffffffffffffffffffffff169060200190919050506110c6565b6040518082815260200191505060405180910390f35b341561044f57600080fd5b610465600480803590602001909190505061110f565b604051808215151515815260200191505060405180910390f35b341561048a57600080fd5b610492611269565b604051808215151515815260200191505060405180910390f35b34156104b757600080fd5b6104bf611282565b6040518082815260200191505060405180910390f35b34156104e057600080fd5b61050c600480803573ffffffffffffffffffffffffffffffffffffffff16906020019091905050611288565b6040518082815260200191505060405180910390f35b341561052d57600080fd5b610559600480803573ffffffffffffffffffffffffffffffffffffffff169060200190919050506112a0565b6040518082815260200191505060405180910390f35b341561057a57600080fd5b6105826112e9565b6040518080602001828103825283818151815260200191508051906020019080838360005b838110156105c25780820151818401526020810190506105a7565b50505050905090810190601f1680156105ef5780820380516001836020036101000a031916815260200191505b509250505060405180910390f35b341561060857600080fd5b610610611387565b604051808215151515815260200191505060405180910390f35b341561063557600080fd5b61066a600480803573ffffffffffffffffffffffffffffffffffffffff169060200190919080359060200190919050506113a0565b604051808215151515815260200191505060405180910390f35b341561068f57600080fd5b6106bb600480803573ffffffffffffffffffffffffffffffffffffffff1690602001909190505061169a565b6040518082815260200191505060405180910390f35b34156106dc57600080fd5b6106f26004808035906020019091905050611702565b604051808273ffffffffffffffffffffffffffffffffffffffff1673ffffffffffffffffffffffffffffffffffffffff16815260200191505060405180910390f35b341561073f57600080fd5b6107556004808035906020019091905050611741565b604051808273ffffffffffffffffffffffffffffffffffffffff1673ffffffffffffffffffffffffffffffffffffffff16815260200191505060405180910390f35b34156107a257600080fd5b6107ce600480803573ffffffffffffffffffffffffffffffffffffffff16906020019091905050611780565b6040518082815260200191505060405180910390f35b34156107ef57600080fd5b6108056004808035906020019091905050611830565b604051808273ffffffffffffffffffffffffffffffffffffffff1673ffffffffffffffffffffffffffffffffffffffff16815260200191505060405180910390f35b341561085257600080fd5b61087e600480803573ffffffffffffffffffffffffffffffffffffffff1690602001909190505061186f565b6040518082815260200191505060405180910390f35b341561089f57600080fd5b6108ea600480803573ffffffffffffffffffffffffffffffffffffffff1690602001909190803573ffffffffffffffffffffffffffffffffffffffff169060200190919050506118b8565b6040518082815260200191505060405180910390f35b341561090b57600080fd5b610921600480803590602001909190505061193f565b604051808215151515815260200191505060405180910390f35b60008054600181600116156101000203166002900480601f0160208091040260200160405190810160405280929190818152602001828054600181600116156101000203166002900480156109d15780601f106109a6576101008083540402835291602001916109d1565b820191906000526020600020905b8154815290600101906020018083116109b457829003601f168201915b505050505081565b6000600254600a0a8202600660003373ffffffffffffffffffffffffffffffffffffffff1673ffffffffffffffffffffffffffffffffffffffff16815260200190815260200160002060008573ffffffffffffffffffffffffffffffffffffffff1673ffffffffffffffffffffffffffffffffffffffff168152602001908152602001600020819055506001905092915050565b60095481565b60035481565b600b5481565b600081600460008673ffffffffffffffffffffffffffffffffffffffff1673ffffffffffffffffffffffffffffffffffffffff1681526020019081526020016000205410158015610b4c575081600660008673ffffffffffffffffffffffffffffffffffffffff1673ffffffffffffffffffffffffffffffffffffffff16815260200190815260200160002060003373ffffffffffffffffffffffffffffffffffffffff1673ffffffffffffffffffffffffffffffffffffffff1681526020019081526020016000205410155b8015610b585750600082115b8015610be35750600460008473ffffffffffffffffffffffffffffffffffffffff1673ffffffffffffffffffffffffffffffffffffffff1681526020019081526020016000205482600460008673ffffffffffffffffffffffffffffffffffffffff1673ffffffffffffffffffffffffffffffffffffffff1681526020019081526020016000205401115b15610e3f57610c41600254600a0a8302600460008773ffffffffffffffffffffffffffffffffffffffff1673ffffffffffffffffffffffffffffffffffffffff16815260200190815260200160002054611aba90919063ffffffff16565b600460008673ffffffffffffffffffffffffffffffffffffffff1673ffffffffffffffffffffffffffffffffffffffff16815260200190815260200160002081905550610d1a600254600a0a8302600660008773ffffffffffffffffffffffffffffffffffffffff1673ffffffffffffffffffffffffffffffffffffffff16815260200190815260200160002060003373ffffffffffffffffffffffffffffffffffffffff1673ffffffffffffffffffffffffffffffffffffffff16815260200190815260200160002054611aba90919063ffffffff16565b600660008673ffffffffffffffffffffffffffffffffffffffff1673ffffffffffffffffffffffffffffffffffffffff16815260200190815260200160002060003373ffffffffffffffffffffffffffffffffffffffff1673ffffffffffffffffffffffffffffffffffffffff16815260200190815260200160002081905550610df3600254600a0a8302600460008673ffffffffffffffffffffffffffffffffffffffff1673ffffffffffffffffffffffffffffffffffffffff16815260200190815260200160002054611ad390919063ffffffff16565b600460008573ffffffffffffffffffffffffffffffffffffffff1673ffffffffffffffffffffffffffffffffffffffff1681526020019081526020016000208190555060019050610e44565b600090505b9392505050565b60025481565b60125481565b600860009054906101000a900473ffffffffffffffffffffffffffffffffffffffff1673ffffffffffffffffffffffffffffffffffffffff163373ffffffffffffffffffffffffffffffffffffffff16141515610eb357600080fd5b80610edf600860009054906101000a900473ffffffffffffffffffffffffffffffffffffffff166110c6565b10151515610eec57600080fd5b610f608160046000600860009054906101000a900473ffffffffffffffffffffffffffffffffffffffff1673ffffffffffffffffffffffffffffffffffffffff1673ffffffffffffffffffffffffffffffffffffffff16815260200190815260200160002054611aba90919063ffffffff16565b60046000600860009054906101000a900473ffffffffffffffffffffffffffffffffffffffff1673ffffffffffffffffffffffffffffffffffffffff1673ffffffffffffffffffffffffffffffffffffffff1681526020019081526020016000208190555050565b80600560003373ffffffffffffffffffffffffffffffffffffffff1673ffffffffffffffffffffffffffffffffffffffff168152602001908152602001600020541015151561101657600080fd5b80600560003373ffffffffffffffffffffffffffffffffffffffff1673ffffffffffffffffffffffffffffffffffffffff1681526020019081526020016000206000828254039250508190555080600c60008473ffffffffffffffffffffffffffffffffffffffff1673ffffffffffffffffffffffffffffffffffffffff16815260200190815260200160002060008282540192505081905550600b600081548092919060010191905055505050565b6000600460008373ffffffffffffffffffffffffffffffffffffffff1673ffffffffffffffffffffffffffffffffffffffff168152602001908152602001600020549050919050565b6000806000600860009054906101000a900473ffffffffffffffffffffffffffffffffffffffff1673ffffffffffffffffffffffffffffffffffffffff163373ffffffffffffffffffffffffffffffffffffffff1614151561117057600080fd5b60008411151561117f57600080fd5b611187611269565b151561119257600080fd5b62093a80600960008282540192505081905550600091505b600d8054905082101561125657600d828154811015156111c657fe5b906000526020600020900160009054906101000a900473ffffffffffffffffffffffffffffffffffffffff1690506111fd81611780565b600460008373ffffffffffffffffffffffffffffffffffffffff1673ffffffffffffffffffffffffffffffffffffffff1681526020019081526020016000206000828254019250508190555081806001019250506111aa565b6000600b81905550600192505050919050565b60006009544211151561127b57600080fd5b6001905090565b600a5481565b600c6020528060005260406000206000915090505481565b6000600560008373ffffffffffffffffffffffffffffffffffffffff1673ffffffffffffffffffffffffffffffffffffffff168152602001908152602001600020549050919050565b60018054600181600116156101000203166002900480601f01602080910402602001604051908101604052809291908181526020018280546001816001161561010002031660029004801561137f5780601f106113545761010080835404028352916020019161137f565b820191906000526020600020905b81548152906001019060200180831161136257829003601f168201915b505050505081565b6000600a544211151561139957600080fd5b6001905090565b600080600080600073ffffffffffffffffffffffffffffffffffffffff168673ffffffffffffffffffffffffffffffffffffffff16141515156113e257600080fd5b61143b600254600a0a8602600460003373ffffffffffffffffffffffffffffffffffffffff1673ffffffffffffffffffffffffffffffffffffffff16815260200190815260200160002054611aba90919063ffffffff16565b600460003373ffffffffffffffffffffffffffffffffffffffff1673ffffffffffffffffffffffffffffffffffffffff168152602001908152602001600020819055506114d7600254600a0a8602600460008973ffffffffffffffffffffffffffffffffffffffff1673ffffffffffffffffffffffffffffffffffffffff16815260200190815260200160002054611ad390919063ffffffff16565b600460008873ffffffffffffffffffffffffffffffffffffffff1673ffffffffffffffffffffffffffffffffffffffff1681526020019081526020016000208190555060009250600091505b6007805490508210156115b75760078281548110151561153f57fe5b906000526020600020900160009054906101000a900473ffffffffffffffffffffffffffffffffffffffff1690508573ffffffffffffffffffffffffffffffffffffffff168173ffffffffffffffffffffffffffffffffffffffff1614156115aa57600192506115b7565b8180600101925050611523565b60001515831515141561162857600780548060010182816115d89190611b47565b9160005260206000209001600088909190916101000a81548173ffffffffffffffffffffffffffffffffffffffff021916908373ffffffffffffffffffffffffffffffffffffffff160217905550505b8573ffffffffffffffffffffffffffffffffffffffff163373ffffffffffffffffffffffffffffffffffffffff167fddf252ad1be2c89b69c2b068fc378daa952ba7f163c4a11628f55a4df523b3ef876040518082815260200191505060405180910390a36001935050505092915050565b6000806000600460008573ffffffffffffffffffffffffffffffffffffffff1673ffffffffffffffffffffffffffffffffffffffff1681526020019081526020016000205491506116f660035483611af190919063ffffffff16565b90508092505050919050565b600f8181548110151561171157fe5b90600052602060002090016000915054906101000a900473ffffffffffffffffffffffffffffffffffffffff1681565b60078181548110151561175057fe5b90600052602060002090016000915054906101000a900473ffffffffffffffffffffffffffffffffffffffff1681565b6000806000600460008573ffffffffffffffffffffffffffffffffffffffff1673ffffffffffffffffffffffffffffffffffffffff168152602001908152602001600020541115156117d157600080fd5b611825600b54600560008673ffffffffffffffffffffffffffffffffffffffff1673ffffffffffffffffffffffffffffffffffffffff16815260200190815260200160002054611af190919063ffffffff16565b905080915050919050565b600d8181548110151561183f57fe5b90600052602060002090016000915054906101000a900473ffffffffffffffffffffffffffffffffffffffff1681565b6000600c60008373ffffffffffffffffffffffffffffffffffffffff1673ffffffffffffffffffffffffffffffffffffffff168152602001908152602001600020549050919050565b6000600660008473ffffffffffffffffffffffffffffffffffffffff1673ffffffffffffffffffffffffffffffffffffffff16815260200190815260200160002060008373ffffffffffffffffffffffffffffffffffffffff1673ffffffffffffffffffffffffffffffffffffffff16815260200190815260200160002054905092915050565b6000806000600860009054906101000a900473ffffffffffffffffffffffffffffffffffffffff1673ffffffffffffffffffffffffffffffffffffffff163373ffffffffffffffffffffffffffffffffffffffff161415156119a057600080fd5b6000841115156119af57600080fd5b6119b7611387565b15156119c257600080fd5b62093a80600a60008282540192505081905550600091505b600780549050821015611aaf576007828154811015156119f657fe5b906000526020600020900160009054906101000a900473ffffffffffffffffffffffffffffffffffffffff169050611a56600254600a0a611a4886611a3a8561169a565b611b0c90919063ffffffff16565b611af190919063ffffffff16565b600560008373ffffffffffffffffffffffffffffffffffffffff1673ffffffffffffffffffffffffffffffffffffffff1681526020019081526020016000206000828254019250508190555081806001019250506119da565b600192505050919050565b6000828211151515611ac857fe5b818303905092915050565b6000808284019050838110151515611ae757fe5b8091505092915050565b6000808284811515611aff57fe5b0490508091505092915050565b6000806000841415611b215760009150611b40565b8284029050828482811515611b3257fe5b04141515611b3c57fe5b8091505b5092915050565b815481835581811511611b6e57818360005260206000209182019101611b6d9190611b73565b5b505050565b611b9591905b80821115611b91576000816000905550600101611b79565b5090565b905600a165627a7a7230582019f79f3a7760dac4349d9558593085c88515133c8eb8fa181edcbe846296caa80029",
  "source": "pragma solidity ^0.4.18;\n\nimport \"./RPM.sol\";\n\ncontract BountyContract is RPM {\n\n    function BountyContract() RPM(0, 0, 0) public {\n    }\n\n   /* function createBounty(address _projectAddress, uint _amount, uint _deadlineBlockNumber) public {\n        require(_projectAddress != address(0));\n        require(_amount > 0);\n        require(_deadlineBlockNumber > 0);\n\n        uint bountyId = getNextBountyId();\n\n        if (bountyId > 0) {\n            bountyMap[_projectAddress][bountyId] = Bounty(bountyId, msg.sender, _amount, now, _deadlineBlockNumber, false);\n            bountyIndexes[bountyId] = _projectAddress;\n            bountyCount ++;\n        }\n    }\n\n    function addToBounty(address _projectAddress, uint _bountyId, uint _amount) public {\n        require(_projectAddress != address(0));\n        require(_amount > 0);\n\n        require(bountyMap[_projectAddress][_bountyId].successfullyClaimed != true);\n        require(bountyMap[_projectAddress][_bountyId].deadlineBlockNumber < now);\n\n        require(balanceOf(msg.sender) >= _amount);\n\n        BountyAddition memory bountyAddtion = BountyAddition(msg.sender, _amount, now);\n        bountyAdditionMap[_bountyId].push(bountyAddtion);\n    }\n\n    function getActiveBounties(address _projectAddress) public returns (Bounty[]) {\n        require(_projectAddress != address(0));\n        Bounty[] storage activeBounties;\n\n        for (uint256 i = 0; i < bountyMap[_projectAddress].length; i++) {\n            uint bountyId = bountyMap[_projectAddress][i].bountyId;\n\n            if (bountyMap[_projectAddress][i].successfullyClaimed != true && bountyMap[_projectAddress][i].deadlineBlockNumber > now) {\n                \n                address bountyCreator = bountyMap[_projectAddress][i].bountyCreator;\n                uint amount = bountyMap[_projectAddress][i].bountyAmount;\n                uint256 lodgedDate = bountyMap[_projectAddress][i].lodgedDate;\n                uint deadlineBlockNumber = bountyMap[_projectAddress][i].deadlineBlockNumber;\n\n                for (uint256 j = 0; j < bountyAdditionMap[bountyId].length; j++) {\n                    amount += bountyAdditionMap[bountyId][j].addedBountyAmount;\n                }\n\n                Bounty memory newBounty = Bounty(bountyId, bountyCreator, amount, lodgedDate, deadlineBlockNumber, false);\n                activeBounties.push(newBounty);\n            }\n        }\n\n        return activeBounties;\n    }\n\n    function createBountyClaim(uint _bountyId) public {\n        bountyClaimMap[_bountyId].push(BountyClaim(msg.sender, false, now));\n    }\n\n    function acceptBountyClaim(address _projectAddress, uint _bountyId, uint _bountyClaimId) public {\n        require(_projectAddress != address(0));\n        Bounty storage bounty = bountyMap[_projectAddress][_bountyId];\n\n        //Maybe make modifier\n        require(bounty.bountyCreator == msg.sender);\n\n        bounty.successfullyClaimed = true;\n        BountyClaim[] storage bountyClaim = bountyClaimMap[_bountyId];\n        bountyClaim[_bountyClaimId].successfulClaim = true;\n\n        //send tokens\n        uint amount = bounty.bountyAmount;\n        bounty.bountyAmount = 0; //Review\n\n        //Get all additional bounties too\n        for (uint i = 0; i < bountyAdditionMap[_bountyId].length; i++) {\n            amount += bountyAdditionMap[_bountyId][i].addedBountyAmount;\n            bountyAdditionMap[_bountyId][i].addedBountyAmount = 0; //Review\n        }\n\n        address claimerAddress = bountyClaim[_bountyClaimId].claimerAddress;\n        balances[claimerAddress] += amount;\n    }\n\n    function refundBounty(address _projectAddress, uint _bountyId) public {\n        require(_projectAddress != address(0));\n        Bounty storage bounty = bountyMap[_projectAddress][_bountyId];\n\n        require(bounty.bountyCreator == msg.sender);\n        require(bounty.successfullyClaimed == false);\n        require(bounty.deadlineBlockNumber > now);\n\n        uint amount = bounty.bountyAmount;\n        bounty.bountyAmount = 0;\n\n        balances[bounty.bountyCreator] = balances[bounty.bountyCreator].add(amount);\n\n        //Refund all additional bounties too\n        for (uint i = 0; i < bountyAdditionMap[_bountyId].length; i++) {\n            amount += bountyAdditionMap[_bountyId][i].addedBountyAmount;\n            bountyAdditionMap[_bountyId][i].addedBountyAmount = 0; //Review\n        }\n    }\n\n    function getNextBountyId() public constant returns (uint) {\n        return bountyCount + 1;\n    }\n\n    function getNextAdditionalBountyId(uint _bountyId) public constant returns (uint) {\n        return bountyAdditionMap[_bountyId].length + 1;\n    }\n\n    function getNextBountyClaimId(uint _bountyId) public constant returns (uint) {\n        return bountyClaimMap[_bountyId].length + 1;\n    }*/\n}",
  "sourcePath": "/Users/didil/work/projects/ethereum/recPM/src/contracts/BountyContract.sol",
  "compiler": {
    "name": "solc",
    "version": "0.4.19+commit.c4cbbb05.Emscripten.clang"
  },
  "schemaVersion": "1.0.1",
  "updatedAt": "2018-02-21T15:47:30.901Z"
}